{
  "contractName": "EvidenceStorage",
  "abi": [
    {
      "inputs": [],
      "stateMutability": "nonpayable",
      "type": "constructor"
    },
    {
      "anonymous": false,
      "inputs": [
        {
          "indexed": true,
          "internalType": "string",
          "name": "caseId",
          "type": "string"
        },
        {
          "indexed": true,
          "internalType": "bytes32",
          "name": "evidenceHash",
          "type": "bytes32"
        },
        {
          "indexed": true,
          "internalType": "address",
          "name": "uploadedBy",
          "type": "address"
        },
        {
          "indexed": false,
          "internalType": "uint256",
          "name": "timestamp",
          "type": "uint256"
        }
      ],
      "name": "EvidenceLogged",
      "type": "event"
    },
    {
      "inputs": [
        {
          "internalType": "address",
          "name": "",
          "type": "address"
        }
      ],
      "name": "authorizedUploaders",
      "outputs": [
        {
          "internalType": "bool",
          "name": "",
          "type": "bool"
        }
      ],
      "stateMutability": "view",
      "type": "function",
      "constant": true
    },
    {
      "inputs": [
        {
          "internalType": "string",
          "name": "",
          "type": "string"
        },
        {
          "internalType": "uint256",
          "name": "",
          "type": "uint256"
        }
      ],
      "name": "caseEvidenceHashes",
      "outputs": [
        {
          "internalType": "bytes32",
          "name": "",
          "type": "bytes32"
        }
      ],
      "stateMutability": "view",
      "type": "function",
      "constant": true
    },
    {
      "inputs": [
        {
          "internalType": "string",
          "name": "",
          "type": "string"
        },
        {
          "internalType": "bytes32",
          "name": "",
          "type": "bytes32"
        }
      ],
      "name": "evidenceHashes",
      "outputs": [
        {
          "internalType": "bool",
          "name": "",
          "type": "bool"
        }
      ],
      "stateMutability": "view",
      "type": "function",
      "constant": true
    },
    {
      "inputs": [],
      "name": "owner",
      "outputs": [
        {
          "internalType": "address",
          "name": "",
          "type": "address"
        }
      ],
      "stateMutability": "view",
      "type": "function",
      "constant": true
    },
    {
      "inputs": [
        {
          "internalType": "address",
          "name": "",
          "type": "address"
        },
        {
          "internalType": "uint256",
          "name": "",
          "type": "uint256"
        }
      ],
      "name": "uploaderHashes",
      "outputs": [
        {
          "internalType": "bytes32",
          "name": "",
          "type": "bytes32"
        }
      ],
      "stateMutability": "view",
      "type": "function",
      "constant": true
    },
    {
      "inputs": [
        {
          "internalType": "string",
          "name": "_caseId",
          "type": "string"
        },
        {
          "internalType": "bytes32",
          "name": "_evidenceHash",
          "type": "bytes32"
        }
      ],
      "name": "logEvidence",
      "outputs": [],
      "stateMutability": "nonpayable",
      "type": "function"
    },
    {
      "inputs": [
        {
          "internalType": "string",
          "name": "_caseId",
          "type": "string"
        },
        {
          "internalType": "bytes32",
          "name": "_evidenceHash",
          "type": "bytes32"
        }
      ],
      "name": "verifyEvidenceHash",
      "outputs": [
        {
          "internalType": "bool",
          "name": "",
          "type": "bool"
        }
      ],
      "stateMutability": "view",
      "type": "function",
      "constant": true
    },
    {
      "inputs": [
        {
          "internalType": "string",
          "name": "_caseId",
          "type": "string"
        }
      ],
      "name": "getCaseEvidenceHashes",
      "outputs": [
        {
          "internalType": "bytes32[]",
          "name": "",
          "type": "bytes32[]"
        }
      ],
      "stateMutability": "view",
      "type": "function",
      "constant": true
    },
    {
      "inputs": [
        {
          "internalType": "address",
          "name": "_uploader",
          "type": "address"
        }
      ],
      "name": "getHashesByUploader",
      "outputs": [
        {
          "internalType": "bytes32[]",
          "name": "",
          "type": "bytes32[]"
        }
      ],
      "stateMutability": "view",
      "type": "function",
      "constant": true
    },
    {
      "inputs": [
        {
          "internalType": "address",
          "name": "_uploader",
          "type": "address"
        },
        {
          "internalType": "bool",
          "name": "_isAuthorized",
          "type": "bool"
        }
      ],
      "name": "setUploader",
      "outputs": [],
      "stateMutability": "nonpayable",
      "type": "function"
    },
    {
      "inputs": [],
      "name": "getBlockTimestamp",
      "outputs": [
        {
          "internalType": "uint256",
          "name": "",
          "type": "uint256"
        }
      ],
      "stateMutability": "view",
      "type": "function",
      "constant": true
    },
    {
      "inputs": [],
      "name": "getBlockNumber",
      "outputs": [
        {
          "internalType": "uint256",
          "name": "",
          "type": "uint256"
        }
      ],
      "stateMutability": "view",
      "type": "function",
      "constant": true
    }
  ],
  "bytecode": "0x608060405234801561001057600080fd5b5060008054600160a060020a0319163390811782558152600160208190526040909120805460ff1916909117905561092d8061004d6000396000f3fe608060405234801561001057600080fd5b50600436106100d1576000357c0100000000000000000000000000000000000000000000000000000000900480638da5cb5b1161008e5780638da5cb5b1461014c5780639c15cde714610177578063b341663d146101c5578063cc7ac3b6146101d8578063eba92bf0146101fb578063f9b528621461020e57600080fd5b806319598a68146100d657806342cbb15c146100eb578063550ed49c14610100578063757e20b114610120578063796b89b9146101335780637ae5599414610139575b600080fd5b6100e96100e43660046106be565b610221565b005b435b6040519081526020015b60405180910390f35b61011361010e3660046107b6565b6102eb565b6040516100f791906107f3565b61011361012e366004610837565b61035b565b426100ed565b6100e9610147366004610859565b6103c5565b60005461015f90600160a060020a031681565b604051600160a060020a0390911681526020016100f7565b6101b5610185366004610859565b81516020818401810180516002825292820194820194909420919093529091526000908152604090205460ff1681565b60405190151581526020016100f7565b6101b56101d3366004610859565b61060e565b6101b56101e6366004610837565b60016020526000908152604090205460ff1681565b6100ed610209366004610859565b610646565b6100ed61021c36600461089e565b610686565b600054600160a060020a031633146102c0576040517f08c379a000000000000000000000000000000000000000000000000000000000815260206004820152602160248201527f4f6e6c79206f776e65722063616e2063616c6c20746869732066756e6374696f60448201527f6e0000000000000000000000000000000000000000000000000000000000000060648201526084015b60405180910390fd5b600160a060020a03919091166000908152600160205260409020805460ff1916911515919091179055565b60606003826040516102fd91906108c8565b908152604080519182900360209081018320805480830285018301909352828452919083018282801561034f57602002820191906000526020600020905b81548152602001906001019080831161033b575b50505050509050919050565b600160a060020a03811660009081526004602090815260409182902080548351818402810184019094528084526060939283018282801561034f576020028201919060005260206000209081548152602001906001019080831161033b5750505050509050919050565b3360009081526001602052604090205460ff16806103ed5750600054600160a060020a031633145b610479576040517f08c379a000000000000000000000000000000000000000000000000000000000815260206004820152602160248201527f4e6f7420617574686f72697a656420746f2075706c6f61642065766964656e6360448201527f650000000000000000000000000000000000000000000000000000000000000060648201526084016102b7565b60028260405161048991906108c8565b90815260408051602092819003830190206000848152925290205460ff1615610534576040517f08c379a000000000000000000000000000000000000000000000000000000000815260206004820152602a60248201527f45766964656e6365206861736820616c72656164792065786973747320666f7260448201527f207468697320636173650000000000000000000000000000000000000000000060648201526084016102b7565b600160028360405161054691906108c8565b9081526040805160209281900383018120600086815293529120805460ff19169215159290921790915560039061057e9084906108c8565b90815260408051918290036020908101832080546001818101835560009283528383209091018690553380835260048452938220805491820181558252919020018390559082906105d09085906108c8565b604051908190038120428252907f60f1fecabbe5f053521b0ae7463de852bfcbc04ce962c7295e2f0635ed7881459060200160405180910390a45050565b600060028360405161062091906108c8565b908152604080516020928190038301902060009485529091529091205460ff1692915050565b8151602081840181018051600382529282019185019190912091905280548290811061067157600080fd5b90600052602060002001600091509150505481565b6004602052816000526040600020818154811061067157600080fd5b8035600160a060020a03811681146106b957600080fd5b919050565b600080604083850312156106d157600080fd5b6106da836106a2565b9150602083013580151581146106ef57600080fd5b809150509250929050565b7f4e487b7100000000000000000000000000000000000000000000000000000000600052604160045260246000fd5b600082601f83011261073a57600080fd5b813567ffffffffffffffff80821115610755576107556106fa565b604051601f8301601f19908116603f0116810190828211818310171561077d5761077d6106fa565b8160405283815286602085880101111561079657600080fd5b836020870160208301376000602085830101528094505050505092915050565b6000602082840312156107c857600080fd5b813567ffffffffffffffff8111156107df57600080fd5b6107eb84828501610729565b949350505050565b6020808252825182820181905260009190848201906040850190845b8181101561082b5783518352928401929184019160010161080f565b50909695505050505050565b60006020828403121561084957600080fd5b610852826106a2565b9392505050565b6000806040838503121561086c57600080fd5b823567ffffffffffffffff81111561088357600080fd5b61088f85828601610729565b95602094909401359450505050565b600080604083850312156108b157600080fd5b6108ba836106a2565b946020939093013593505050565b6000825160005b818110156108e957602081860181015185830152016108cf565b50600092019182525091905056fea26469706673582212209cf6f25a1774f62156776af8ae66b2fd127e6d4b3c81b1bd2b0f9969d62fb4e864736f6c63430008130033",
  "immutableReferences": {},
  "source": "// SPDX-License-Identifier: MIT\r\npragma solidity ^0.8.0;\r\n\r\ncontract EvidenceStorage {\r\n    address public owner;\r\n    \r\n    mapping(address => bool) public authorizedUploaders;\r\n    mapping(string => mapping(bytes32 => bool)) public evidenceHashes;\r\n    mapping(string => bytes32[]) public caseEvidenceHashes;\r\n    mapping(address => bytes32[]) public uploaderHashes;\r\n    \r\n    event EvidenceLogged(\r\n        string indexed caseId,\r\n        bytes32 indexed evidenceHash,\r\n        address indexed uploadedBy,\r\n        uint256 timestamp\r\n    );\r\n    \r\n    modifier onlyOwner() {\r\n        require(msg.sender == owner, \"Only owner can call this function\");\r\n        _;\r\n    }\r\n    \r\n    modifier onlyAuthorized() {\r\n        require(authorizedUploaders[msg.sender] || msg.sender == owner, \"Not authorized to upload evidence\");\r\n        _;\r\n    }\r\n    \r\n    constructor() {\r\n        owner = msg.sender;\r\n        authorizedUploaders[msg.sender] = true;\r\n    }\r\n    \r\n    function logEvidence(string memory _caseId, bytes32 _evidenceHash) public onlyAuthorized {\r\n        require(!evidenceHashes[_caseId][_evidenceHash], \"Evidence hash already exists for this case\");\r\n        \r\n        evidenceHashes[_caseId][_evidenceHash] = true;\r\n        caseEvidenceHashes[_caseId].push(_evidenceHash);\r\n        uploaderHashes[msg.sender].push(_evidenceHash);\r\n        \r\n        emit EvidenceLogged(_caseId, _evidenceHash, msg.sender, block.timestamp);\r\n    }\r\n    \r\n    function verifyEvidenceHash(string memory _caseId, bytes32 _evidenceHash) public view returns (bool) {\r\n        return evidenceHashes[_caseId][_evidenceHash];\r\n    }\r\n    \r\n    function getCaseEvidenceHashes(string memory _caseId) public view returns (bytes32[] memory) {\r\n        return caseEvidenceHashes[_caseId];\r\n    }\r\n    \r\n    function getHashesByUploader(address _uploader) public view returns (bytes32[] memory) {\r\n        return uploaderHashes[_uploader];\r\n    }\r\n    \r\n    function setUploader(address _uploader, bool _isAuthorized) public onlyOwner {\r\n        authorizedUploaders[_uploader] = _isAuthorized;\r\n    }\r\n    \r\n    function getBlockTimestamp() public view returns (uint256) {\r\n        return block.timestamp;\r\n    }\r\n    \r\n    function getBlockNumber() public view returns (uint256) {\r\n        return block.number;\r\n    }\r\n}\r\n",
  "sourcePath": "/home/messi/Documents/Project/TRM2.0/contracts/EvidenceStorage.sol",
  "compiler": {
    "name": "solc",
    "version": "0.8.19+commit.7dd6d404.Emscripten.clang"
  },
  "schemaVersion": "3.4.16",
  "updatedAt": "2025-09-19T19:03:38.657Z",
  "networkType": "ethereum",
  "devdoc": {
    "kind": "dev",
    "methods": {},
    "version": 1
  },
  "userdoc": {
    "kind": "user",
    "methods": {},
    "version": 1
  }
}